{
  "contractName": "Ballot",
  "abi": [
    {
      "inputs": [
        {
          "internalType": "string[]",
          "name": "_proposalNames",
          "type": "string[]"
        },
        {
          "internalType": "uint32",
          "name": "_dateEnd",
          "type": "uint32"
        }
      ],
      "payable": false,
      "stateMutability": "nonpayable",
      "type": "constructor"
    },
    {
      "constant": true,
      "inputs": [],
      "name": "chairperson",
      "outputs": [
        {
          "internalType": "address",
          "name": "",
          "type": "address"
        }
      ],
      "payable": false,
      "stateMutability": "view",
      "type": "function"
    },
    {
      "constant": true,
      "inputs": [],
      "name": "dateEnd",
      "outputs": [
        {
          "internalType": "uint32",
          "name": "",
          "type": "uint32"
        }
      ],
      "payable": false,
      "stateMutability": "view",
      "type": "function"
    },
    {
      "constant": true,
      "inputs": [
        {
          "internalType": "uint256",
          "name": "",
          "type": "uint256"
        }
      ],
      "name": "proposals",
      "outputs": [
        {
          "internalType": "string",
          "name": "name",
          "type": "string"
        },
        {
          "internalType": "uint256",
          "name": "voteCount",
          "type": "uint256"
        }
      ],
      "payable": false,
      "stateMutability": "view",
      "type": "function"
    },
    {
      "constant": true,
      "inputs": [
        {
          "internalType": "address",
          "name": "",
          "type": "address"
        }
      ],
      "name": "voters",
      "outputs": [
        {
          "internalType": "uint256",
          "name": "weight",
          "type": "uint256"
        },
        {
          "internalType": "bool",
          "name": "voted",
          "type": "bool"
        },
        {
          "internalType": "address",
          "name": "delegate",
          "type": "address"
        },
        {
          "internalType": "uint256",
          "name": "vote",
          "type": "uint256"
        }
      ],
      "payable": false,
      "stateMutability": "view",
      "type": "function"
    },
    {
      "constant": false,
      "inputs": [
        {
          "internalType": "address",
          "name": "_voter",
          "type": "address"
        }
      ],
      "name": "giveRightToVote",
      "outputs": [],
      "payable": false,
      "stateMutability": "nonpayable",
      "type": "function"
    },
    {
      "constant": false,
      "inputs": [
        {
          "internalType": "address",
          "name": "_to",
          "type": "address"
        }
      ],
      "name": "delegate",
      "outputs": [],
      "payable": false,
      "stateMutability": "nonpayable",
      "type": "function"
    },
    {
      "constant": false,
      "inputs": [
        {
          "internalType": "uint256",
          "name": "_proposal",
          "type": "uint256"
        }
      ],
      "name": "vote",
      "outputs": [],
      "payable": false,
      "stateMutability": "nonpayable",
      "type": "function"
    },
    {
      "constant": true,
      "inputs": [],
      "name": "winningProposal",
      "outputs": [
        {
          "internalType": "uint256",
          "name": "winningProposal_",
          "type": "uint256"
        }
      ],
      "payable": false,
      "stateMutability": "view",
      "type": "function"
    },
    {
      "constant": true,
      "inputs": [],
      "name": "winnerName",
      "outputs": [
        {
          "internalType": "string",
          "name": "winnerName_",
          "type": "string"
        }
      ],
      "payable": false,
      "stateMutability": "view",
      "type": "function"
    },
    {
      "constant": true,
      "inputs": [],
      "name": "alreadyVote",
      "outputs": [
        {
          "internalType": "bool",
          "name": "alreadyVote_",
          "type": "bool"
        }
      ],
      "payable": false,
      "stateMutability": "view",
      "type": "function"
    },
    {
      "constant": true,
      "inputs": [],
      "name": "getProposalList",
      "outputs": [
        {
          "components": [
            {
              "internalType": "string",
              "name": "name",
              "type": "string"
            },
            {
              "internalType": "uint256",
              "name": "voteCount",
              "type": "uint256"
            }
          ],
          "internalType": "struct Ballot.Proposal[]",
          "name": "",
          "type": "tuple[]"
        }
      ],
      "payable": false,
      "stateMutability": "view",
      "type": "function"
    },
    {
      "constant": true,
      "inputs": [],
      "name": "getVoter",
      "outputs": [
        {
          "components": [
            {
              "internalType": "uint256",
              "name": "weight",
              "type": "uint256"
            },
            {
              "internalType": "bool",
              "name": "voted",
              "type": "bool"
            },
            {
              "internalType": "address",
              "name": "delegate",
              "type": "address"
            },
            {
              "internalType": "uint256",
              "name": "vote",
              "type": "uint256"
            }
          ],
          "internalType": "struct Ballot.Voter",
          "name": "",
          "type": "tuple"
        }
      ],
      "payable": false,
      "stateMutability": "view",
      "type": "function"
    }
  ],
  "bytecode": "0x60806040523480156200001157600080fd5b5060405162001e7438038062001e7483398181016040526200003791908101906200041d565b336000806101000a81548173ffffffffffffffffffffffffffffffffffffffff021916908373ffffffffffffffffffffffffffffffffffffffff160217905550620000f460018060008060009054906101000a900473ffffffffffffffffffffffffffffffffffffffff1673ffffffffffffffffffffffffffffffffffffffff1673ffffffffffffffffffffffffffffffffffffffff168152602001908152602001600020600001546200022660201b62000ef61790919060201c565b600160008060009054906101000a900473ffffffffffffffffffffffffffffffffffffffff1673ffffffffffffffffffffffffffffffffffffffff1673ffffffffffffffffffffffffffffffffffffffff1681526020019081526020016000206000018190555080600360006101000a81548163ffffffff021916908363ffffffff16021790555060008090505b82518110156200021d5760026040518060400160405280858481518110620001a657fe5b602002602001015181526020016000815250908060018154018082558091505090600182039060005260206000209060020201600090919290919091506000820151816000019080519060200190620002019291906200027e565b5060208201518160010155505050808060010191505062000182565b505050620005d0565b60008082840190508381101562000274576040517f08c379a00000000000000000000000000000000000000000000000000000000081526004016200026b90620004b9565b60405180910390fd5b8091505092915050565b828054600181600116156101000203166002900490600052602060002090601f016020900481019282601f10620002c157805160ff1916838001178555620002f2565b82800160010185558215620002f2579182015b82811115620002f1578251825591602001919060010190620002d4565b5b50905062000301919062000305565b5090565b6200032a91905b80821115620003265760008160009055506001016200030c565b5090565b90565b600082601f8301126200033f57600080fd5b815162000356620003508262000509565b620004db565b9150818183526020840193506020810190508360005b83811015620003a05781518601620003858882620003aa565b8452602084019350602083019250506001810190506200036c565b5050505092915050565b600082601f830112620003bc57600080fd5b8151620003d3620003cd8262000532565b620004db565b91508082526020830160208301858383011115620003f057600080fd5b620003fd83828462000580565b50505092915050565b6000815190506200041781620005b6565b92915050565b600080604083850312156200043157600080fd5b600083015167ffffffffffffffff8111156200044c57600080fd5b6200045a858286016200032d565b92505060206200046d8582860162000406565b9150509250929050565b600062000486601b836200055f565b91507f536166654d6174683a206164646974696f6e206f766572666c6f7700000000006000830152602082019050919050565b60006020820190508181036000830152620004d48162000477565b9050919050565b6000604051905081810181811067ffffffffffffffff82111715620004ff57600080fd5b8060405250919050565b600067ffffffffffffffff8211156200052157600080fd5b602082029050602081019050919050565b600067ffffffffffffffff8211156200054a57600080fd5b601f19601f8301169050602081019050919050565b600082825260208201905092915050565b600063ffffffff82169050919050565b60005b83811015620005a057808201518184015260208101905062000583565b83811115620005b0576000848401525b50505050565b620005c18162000570565b8114620005cd57600080fd5b50565b61189480620005e06000396000f3fe608060405234801561001057600080fd5b50600436106100b45760003560e01c8063609ff1bd11610071578063609ff1bd1461017c57806389244e2a1461019a5780638f4813d3146101b85780639e7b8d61146101d6578063a3ec138d146101f2578063e2ba53f014610225576100b4565b80630121b93f146100b9578063013cf08b146100d55780632b37f53c146101065780632e4176cf14610124578063346750f3146101425780635c19a95c14610160575b600080fd5b6100d360048036036100ce9190810190610ff8565b610243565b005b6100ef60048036036100ea9190810190610ff8565b6103fc565b6040516100fd929190611530565b60405180910390f35b61010e6104c5565b60405161011b9190611680565b60405180910390f35b61012c6105a1565b60405161013991906114b6565b60405180910390f35b61014a6105c6565b60405161015791906114d1565b60405180910390f35b61017a60048036036101759190810190610fcf565b610724565b005b610184610adf565b604051610191919061169b565b60405180910390f35b6101a2610b56565b6040516101af91906116fb565b60405180910390f35b6101c0610b6c565b6040516101cd91906114f3565b60405180910390f35b6101f060048036036101eb9190810190610fcf565b610bc8565b005b61020c60048036036102079190810190610fcf565b610dd4565b60405161021c94939291906116b6565b60405180910390f35b61022d610e31565b60405161023a919061150e565b60405180910390f35b42600360009054906101000a900463ffffffff1663ffffffff16101561029e576040517f08c379a000000000000000000000000000000000000000000000000000000000815260040161029590611620565b60405180910390fd5b6000600160003373ffffffffffffffffffffffffffffffffffffffff1673ffffffffffffffffffffffffffffffffffffffff1681526020019081526020016000209050600081600001541415610329576040517f08c379a000000000000000000000000000000000000000000000000000000000815260040161032090611560565b60405180910390fd5b8060010160009054906101000a900460ff161561037b576040517f08c379a0000000000000000000000000000000000000000000000000000000008152600401610372906115a0565b60405180910390fd5b60018160010160006101000a81548160ff0219169083151502179055508181600201819055506103d68160000154600284815481106103b657fe5b906000526020600020906002020160010154610ef690919063ffffffff16565b600283815481106103e357fe5b9060005260206000209060020201600101819055505050565b6002818154811061040957fe5b9060005260206000209060020201600091509050806000018054600181600116156101000203166002900480601f0160208091040260200160405190810160405280929190818152602001828054600181600116156101000203166002900480156104b55780601f1061048a576101008083540402835291602001916104b5565b820191906000526020600020905b81548152906001019060200180831161049857829003601f168201915b5050505050908060010154905082565b6104cd610f4b565b600160003373ffffffffffffffffffffffffffffffffffffffff1673ffffffffffffffffffffffffffffffffffffffff168152602001908152602001600020604051806080016040529081600082015481526020016001820160009054906101000a900460ff161515151581526020016001820160019054906101000a900473ffffffffffffffffffffffffffffffffffffffff1673ffffffffffffffffffffffffffffffffffffffff1673ffffffffffffffffffffffffffffffffffffffff168152602001600282015481525050905090565b6000809054906101000a900473ffffffffffffffffffffffffffffffffffffffff1681565b60606000600280549050905060608160405190808252806020026020018201604052801561060e57816020015b6105fb610f8b565b8152602001906001900390816105f35790505b50905060008090505b8281101561071b5760006002828154811061062e57fe5b9060005260206000209060020201905080604051806040016040529081600082018054600181600116156101000203166002900480601f0160208091040260200160405190810160405280929190818152602001828054600181600116156101000203166002900480156106e35780601f106106b8576101008083540402835291602001916106e3565b820191906000526020600020905b8154815290600101906020018083116106c657829003601f168201915b5050505050815260200160018201548152505083838151811061070257fe5b6020026020010181905250508080600101915050610617565b50809250505090565b6000600160003373ffffffffffffffffffffffffffffffffffffffff1673ffffffffffffffffffffffffffffffffffffffff16815260200190815260200160002090508060010160009054906101000a900460ff16156107b9576040517f08c379a00000000000000000000000000000000000000000000000000000000081526004016107b0906115c0565b60405180910390fd5b3373ffffffffffffffffffffffffffffffffffffffff168273ffffffffffffffffffffffffffffffffffffffff161415610828576040517f08c379a000000000000000000000000000000000000000000000000000000000815260040161081f90611660565b60405180910390fd5b5b600073ffffffffffffffffffffffffffffffffffffffff16600160008473ffffffffffffffffffffffffffffffffffffffff1673ffffffffffffffffffffffffffffffffffffffff16815260200190815260200160002060010160019054906101000a900473ffffffffffffffffffffffffffffffffffffffff1673ffffffffffffffffffffffffffffffffffffffff161461099857600160008373ffffffffffffffffffffffffffffffffffffffff1673ffffffffffffffffffffffffffffffffffffffff16815260200190815260200160002060010160019054906101000a900473ffffffffffffffffffffffffffffffffffffffff1691503373ffffffffffffffffffffffffffffffffffffffff168273ffffffffffffffffffffffffffffffffffffffff161415610993576040517f08c379a000000000000000000000000000000000000000000000000000000000815260040161098a90611600565b60405180910390fd5b610829565b60018160010160006101000a81548160ff021916908315150217905550818160010160016101000a81548173ffffffffffffffffffffffffffffffffffffffff021916908373ffffffffffffffffffffffffffffffffffffffff1602179055506000600160008473ffffffffffffffffffffffffffffffffffffffff1673ffffffffffffffffffffffffffffffffffffffff16815260200190815260200160002090508060010160009054906101000a900460ff1615610ab657610a8b82600001546002836002015481548110610a6b57fe5b906000526020600020906002020160010154610ef690919063ffffffff16565b6002826002015481548110610a9c57fe5b906000526020600020906002020160010181905550610ada565b610ad182600001548260000154610ef690919063ffffffff16565b81600001819055505b505050565b6000806000905060008090505b600280549050811015610b51578160028281548110610b0757fe5b9060005260206000209060020201600101541115610b445760028181548110610b2c57fe5b90600052602060002090600202016001015491508092505b8080600101915050610aec565b505090565b600360009054906101000a900463ffffffff1681565b600080600160003373ffffffffffffffffffffffffffffffffffffffff1673ffffffffffffffffffffffffffffffffffffffff16815260200190815260200160002090508060010160009054906101000a900460ff1691505090565b6000809054906101000a900473ffffffffffffffffffffffffffffffffffffffff1673ffffffffffffffffffffffffffffffffffffffff163373ffffffffffffffffffffffffffffffffffffffff1614610c57576040517f08c379a0000000000000000000000000000000000000000000000000000000008152600401610c4e906115e0565b60405180910390fd5b600160008273ffffffffffffffffffffffffffffffffffffffff1673ffffffffffffffffffffffffffffffffffffffff16815260200190815260200160002060010160009054906101000a900460ff1615610ce7576040517f08c379a0000000000000000000000000000000000000000000000000000000008152600401610cde90611640565b60405180910390fd5b6000600160008373ffffffffffffffffffffffffffffffffffffffff1673ffffffffffffffffffffffffffffffffffffffff1681526020019081526020016000206000015414610d3657600080fd5b610d8b60018060008473ffffffffffffffffffffffffffffffffffffffff1673ffffffffffffffffffffffffffffffffffffffff16815260200190815260200160002060000154610ef690919063ffffffff16565b600160008373ffffffffffffffffffffffffffffffffffffffff1673ffffffffffffffffffffffffffffffffffffffff1681526020019081526020016000206000018190555050565b60016020528060005260406000206000915090508060000154908060010160009054906101000a900460ff16908060010160019054906101000a900473ffffffffffffffffffffffffffffffffffffffff16908060020154905084565b60606002610e3d610adf565b81548110610e4757fe5b90600052602060002090600202016000018054600181600116156101000203166002900480601f016020809104026020016040519081016040528092919081815260200182805460018160011615610100020316600290048015610eec5780601f10610ec157610100808354040283529160200191610eec565b820191906000526020600020905b815481529060010190602001808311610ecf57829003601f168201915b5050505050905090565b600080828401905083811015610f41576040517f08c379a0000000000000000000000000000000000000000000000000000000008152600401610f3890611580565b60405180910390fd5b8091505092915050565b604051806080016040528060008152602001600015158152602001600073ffffffffffffffffffffffffffffffffffffffff168152602001600081525090565b604051806040016040528060608152602001600081525090565b600081359050610fb481611823565b92915050565b600081359050610fc98161183a565b92915050565b600060208284031215610fe157600080fd5b6000610fef84828501610fa5565b91505092915050565b60006020828403121561100a57600080fd5b600061101884828501610fba565b91505092915050565b600061102d83836113f7565b905092915050565b61103e81611787565b82525050565b61104d81611787565b82525050565b600061105e82611726565b6110688185611754565b93508360208202850161107a85611716565b8060005b858110156110b657848403895281516110978582611021565b94506110a283611747565b925060208a0199505060018101905061107e565b50829750879550505050505092915050565b6110d181611799565b82525050565b6110e081611799565b82525050565b60006110f18261173c565b6110fb8185611776565b935061110b8185602086016117df565b61111481611812565b840191505092915050565b600061112a82611731565b6111348185611765565b93506111448185602086016117df565b61114d81611812565b840191505092915050565b600061116382611731565b61116d8185611776565b935061117d8185602086016117df565b61118681611812565b840191505092915050565b600061119e601483611776565b91507f486173206e6f20726967687420746f20766f74650000000000000000000000006000830152602082019050919050565b60006111de601b83611776565b91507f536166654d6174683a206164646974696f6e206f766572666c6f7700000000006000830152602082019050919050565b600061121e600e83611776565b91507f416c726561647920766f7465642e0000000000000000000000000000000000006000830152602082019050919050565b600061125e601283611776565b91507f596f7520616c726561647920766f7465642e00000000000000000000000000006000830152602082019050919050565b600061129e602883611776565b91507f4f6e6c79206368616972706572736f6e2063616e20676976652072696768742060008301527f746f20766f74652e0000000000000000000000000000000000000000000000006020830152604082019050919050565b6000611304601983611776565b91507f466f756e64206c6f6f7020696e2064656c65676174696f6e2e000000000000006000830152602082019050919050565b6000611344600e83611776565b91507f416c726561647920436c6f7365640000000000000000000000000000000000006000830152602082019050919050565b6000611384601883611776565b91507f54686520766f74657220616c726561647920766f7465642e00000000000000006000830152602082019050919050565b60006113c4601e83611776565b91507f53656c662d64656c65676174696f6e20697320646973616c6c6f7765642e00006000830152602082019050919050565b60006040830160008301518482036000860152611414828261111f565b91505060208301516114296020860182611489565b508091505092915050565b60808201600082015161144a6000850182611489565b50602082015161145d60208501826110c8565b5060408201516114706040850182611035565b5060608201516114836060850182611489565b50505050565b611492816117c5565b82525050565b6114a1816117c5565b82525050565b6114b0816117cf565b82525050565b60006020820190506114cb6000830184611044565b92915050565b600060208201905081810360008301526114eb8184611053565b905092915050565b600060208201905061150860008301846110d7565b92915050565b6000602082019050818103600083015261152881846110e6565b905092915050565b6000604082019050818103600083015261154a8185611158565b90506115596020830184611498565b9392505050565b6000602082019050818103600083015261157981611191565b9050919050565b60006020820190508181036000830152611599816111d1565b9050919050565b600060208201905081810360008301526115b981611211565b9050919050565b600060208201905081810360008301526115d981611251565b9050919050565b600060208201905081810360008301526115f981611291565b9050919050565b60006020820190508181036000830152611619816112f7565b9050919050565b6000602082019050818103600083015261163981611337565b9050919050565b6000602082019050818103600083015261165981611377565b9050919050565b60006020820190508181036000830152611679816113b7565b9050919050565b60006080820190506116956000830184611434565b92915050565b60006020820190506116b06000830184611498565b92915050565b60006080820190506116cb6000830187611498565b6116d860208301866110d7565b6116e56040830185611044565b6116f26060830184611498565b95945050505050565b600060208201905061171060008301846114a7565b92915050565b6000819050602082019050919050565b600081519050919050565b600081519050919050565b600081519050919050565b6000602082019050919050565b600082825260208201905092915050565b600082825260208201905092915050565b600082825260208201905092915050565b6000611792826117a5565b9050919050565b60008115159050919050565b600073ffffffffffffffffffffffffffffffffffffffff82169050919050565b6000819050919050565b600063ffffffff82169050919050565b60005b838110156117fd5780820151818401526020810190506117e2565b8381111561180c576000848401525b50505050565b6000601f19601f8301169050919050565b61182c81611787565b811461183757600080fd5b50565b611843816117c5565b811461184e57600080fd5b5056fea365627a7a723158203e1110eb0ef800b7a01c0a224822aa1f686524bfef86eab597426a9f4349fb796c6578706572696d656e74616cf564736f6c63430005100040",
  "source": "pragma solidity >=0.4.20;\r\npragma experimental ABIEncoderV2;\r\n\r\nimport \"./SafeMath.sol\";\r\n\r\n/** \r\n * @title Ballot\r\n * @dev Implements voting process along with vote delegation\r\n */\r\ncontract Ballot {\r\n   \r\n  using SafeMath for uint256;\r\n  \r\n    struct Voter {\r\n        uint weight;\r\n        bool voted;\r\n        address delegate;\r\n        uint vote;\r\n    }\r\n\r\n    struct Proposal {\r\n        string name;\r\n        uint voteCount;\r\n    }\r\n\r\n    address public chairperson;\r\n\r\n    mapping(address => Voter) public voters;\r\n\r\n    Proposal[] public proposals;\r\n    \r\n    uint32 public dateEnd;\r\n\r\n    /** \r\n     * @dev Create a new ballot to choose one of 'proposalNames'.\r\n     * @param _proposalNames names of proposals\r\n     */\r\n    constructor(string[] memory _proposalNames, uint32 _dateEnd) public {\r\n        chairperson = msg.sender;\r\n        voters[chairperson].weight = voters[chairperson].weight.add(1);\r\n        dateEnd = _dateEnd;\r\n        \r\n\r\n        for (uint i = 0; i < _proposalNames.length; i++) {\r\n            // 'Proposal({...})' creates a temporary\r\n            // Proposal object and 'proposals.push(...)'\r\n            // appends it to the end of 'proposals'.\r\n            proposals.push(Proposal({\r\n                name: _proposalNames[i],\r\n                voteCount: 0\r\n            }));\r\n        }\r\n    }\r\n    \r\n    /** \r\n     * @dev Give 'voter' the right to vote on this ballot. May only be called by 'chairperson'.\r\n     * @param _voter address of voter\r\n     */\r\n    function giveRightToVote(address _voter) public {\r\n        require(\r\n            msg.sender == chairperson,\r\n            \"Only chairperson can give right to vote.\"\r\n        );\r\n        require(\r\n            !voters[_voter].voted,\r\n            \"The voter already voted.\"\r\n        );\r\n        require(voters[_voter].weight == 0);\r\n        voters[_voter].weight = voters[_voter].weight.add(1);\r\n    }\r\n\r\n    /**\r\n     * @dev Delegate your vote to the voter 'to'.\r\n     * @param _to address to which vote is delegated\r\n     */\r\n    function delegate(address _to) public {\r\n        Voter storage sender = voters[msg.sender];\r\n        require(!sender.voted, \"You already voted.\");\r\n        require(_to != msg.sender, \"Self-delegation is disallowed.\");\r\n\r\n        while (voters[_to].delegate != address(0)) {\r\n            _to = voters[_to].delegate;\r\n\r\n            // We found a loop in the delegation, not allowed.\r\n            require(_to != msg.sender, \"Found loop in delegation.\");\r\n        }\r\n        sender.voted = true;\r\n        sender.delegate = _to;\r\n        Voter storage delegate_ = voters[_to];\r\n        if (delegate_.voted) {\r\n            // If the delegate already voted,\r\n            // directly add to the number of votes\r\n            proposals[delegate_.vote].voteCount = proposals[delegate_.vote].voteCount.add(sender.weight);\r\n        } else {\r\n            // If the delegate did not vote yet,\r\n            // add to her weight.\r\n            delegate_.weight = delegate_.weight.add(sender.weight);\r\n        }\r\n    }\r\n\r\n    /**\r\n     * @dev Give your vote (including votes delegated to you) to proposal 'proposals[proposal].name'.\r\n     * @param _proposal index of proposal in the proposals array\r\n     */\r\n    function vote(uint _proposal) public {\r\n        require(dateEnd >= now, \"Already Closed\");\r\n        Voter storage sender = voters[msg.sender];\r\n        require(sender.weight != 0, \"Has no right to vote\");\r\n        require(!sender.voted, \"Already voted.\");\r\n        sender.voted = true;\r\n        sender.vote = _proposal;\r\n\r\n        // If 'proposal' is out of the range of the array,\r\n        // this will throw automatically and revert all\r\n        // changes.\r\n        proposals[_proposal].voteCount = proposals[_proposal].voteCount.add(sender.weight);\r\n    }\r\n\r\n    /**\r\n     * @dev Computes the winning proposal taking all previous votes into account.\r\n     * @return winningProposal_ index of winning proposal in the proposals array\r\n     */\r\n    function winningProposal() public view\r\n            returns (uint winningProposal_)\r\n    {\r\n        uint winningVoteCount = 0;\r\n        for (uint p = 0; p < proposals.length; p++) {\r\n            if (proposals[p].voteCount > winningVoteCount) {\r\n                winningVoteCount = proposals[p].voteCount;\r\n                winningProposal_ = p;\r\n            }\r\n        }\r\n    }\r\n\r\n    /**\r\n     * @dev Calls winningProposal() function to get the index of the winner contained in the proposals array and then\r\n     * @return winnerName_ the name of the winner\r\n     */\r\n    function winnerName() public view\r\n            returns (string memory winnerName_)\r\n    {\r\n        winnerName_ = proposals[winningProposal()].name;\r\n    }\r\n\r\n    /**\r\n     * @dev Calls alreadyVote() function verify if a voter as already voter\r\n     * @return alreadyVote_\r\n     */\r\n    function alreadyVote() public view returns(bool alreadyVote_)\r\n    {\r\n        Voter storage sender = voters[msg.sender];\r\n        alreadyVote_ = sender.voted;\r\n    }\r\n\r\n    /**\r\n     * @dev Calls getProposalList() function that return all proposals\r\n     */\r\n    function getProposalList() public view returns(Proposal[] memory)\r\n    {\r\n        uint length = proposals.length;\r\n        Proposal[] memory listProposal = new Proposal[](length);\r\n        for (uint i = 0; i < length; i++) {\r\n            Proposal storage item = proposals[i];\r\n            listProposal[i] = item;\r\n        }\r\n        return listProposal;\r\n    }\r\n\r\n    function getVoter() public view returns (Voter memory)\r\n    {\r\n        return voters[msg.sender];\r\n    }\r\n}\r\n",
  "sourcePath": "D:\\Course\\5BLOCK\\project\\contracts\\Ballot.sol",
  "compiler": {
    "name": "solc",
    "version": "0.5.16+commit.9c3226ce.Emscripten.clang"
  },
  "schemaVersion": "3.0.23",
  "updatedAt": "2020-03-19T21:09:52.859Z",
  "devdoc": {
    "details": "Implements voting process along with vote delegation",
    "methods": {
      "alreadyVote()": {
        "details": "Calls alreadyVote() function verify if a voter as already voter",
        "return": "alreadyVote_"
      },
      "constructor": {
        "details": "Create a new ballot to choose one of 'proposalNames'.",
        "params": {
          "_proposalNames": "names of proposals"
        }
      },
      "delegate(address)": {
        "details": "Delegate your vote to the voter 'to'.",
        "params": {
          "_to": "address to which vote is delegated"
        }
      },
      "getProposalList()": {
        "details": "Calls getProposalList() function that return all proposals"
      },
      "giveRightToVote(address)": {
        "details": "Give 'voter' the right to vote on this ballot. May only be called by 'chairperson'.",
        "params": {
          "_voter": "address of voter"
        }
      },
      "vote(uint256)": {
        "details": "Give your vote (including votes delegated to you) to proposal 'proposals[proposal].name'.",
        "params": {
          "_proposal": "index of proposal in the proposals array"
        }
      },
      "winnerName()": {
        "details": "Calls winningProposal() function to get the index of the winner contained in the proposals array and then",
        "return": "winnerName_ the name of the winner"
      },
      "winningProposal()": {
        "details": "Computes the winning proposal taking all previous votes into account.",
        "return": "winningProposal_ index of winning proposal in the proposals array"
      }
    },
    "title": "Ballot"
  },
  "userdoc": {
    "methods": {}
  }
}