{
  "contractName": "Ballot",
  "abi": [
    {
      "inputs": [
        {
          "internalType": "string[]",
          "name": "_proposalNames",
          "type": "string[]"
        },
        {
          "internalType": "uint32",
          "name": "_dateEnd",
          "type": "uint32"
        }
      ],
      "payable": false,
      "stateMutability": "nonpayable",
      "type": "constructor"
    },
    {
      "constant": true,
      "inputs": [],
      "name": "chairperson",
      "outputs": [
        {
          "internalType": "address",
          "name": "",
          "type": "address"
        }
      ],
      "payable": false,
      "stateMutability": "view",
      "type": "function"
    },
    {
      "constant": true,
      "inputs": [],
      "name": "dateEnd",
      "outputs": [
        {
          "internalType": "uint32",
          "name": "",
          "type": "uint32"
        }
      ],
      "payable": false,
      "stateMutability": "view",
      "type": "function"
    },
    {
      "constant": true,
      "inputs": [
        {
          "internalType": "uint256",
          "name": "",
          "type": "uint256"
        }
      ],
      "name": "proposals",
      "outputs": [
        {
          "internalType": "string",
          "name": "name",
          "type": "string"
        },
        {
          "internalType": "uint256",
          "name": "voteCount",
          "type": "uint256"
        }
      ],
      "payable": false,
      "stateMutability": "view",
      "type": "function"
    },
    {
      "constant": true,
      "inputs": [
        {
          "internalType": "address",
          "name": "",
          "type": "address"
        }
      ],
      "name": "voters",
      "outputs": [
        {
          "internalType": "uint256",
          "name": "weight",
          "type": "uint256"
        },
        {
          "internalType": "bool",
          "name": "voted",
          "type": "bool"
        },
        {
          "internalType": "address",
          "name": "delegate",
          "type": "address"
        },
        {
          "internalType": "uint256",
          "name": "vote",
          "type": "uint256"
        },
        {
          "internalType": "bool",
          "name": "isCreated",
          "type": "bool"
        }
      ],
      "payable": false,
      "stateMutability": "view",
      "type": "function"
    },
    {
      "constant": false,
      "inputs": [
        {
          "internalType": "address",
          "name": "_voter",
          "type": "address"
        }
      ],
      "name": "giveRightToVote",
      "outputs": [],
      "payable": false,
      "stateMutability": "nonpayable",
      "type": "function"
    },
    {
      "constant": false,
      "inputs": [
        {
          "internalType": "address",
          "name": "_to",
          "type": "address"
        }
      ],
      "name": "delegate",
      "outputs": [],
      "payable": false,
      "stateMutability": "nonpayable",
      "type": "function"
    },
    {
      "constant": false,
      "inputs": [
        {
          "internalType": "uint256",
          "name": "_proposal",
          "type": "uint256"
        }
      ],
      "name": "vote",
      "outputs": [],
      "payable": false,
      "stateMutability": "nonpayable",
      "type": "function"
    },
    {
      "constant": true,
      "inputs": [],
      "name": "winningProposal",
      "outputs": [
        {
          "internalType": "uint256",
          "name": "winningProposal_",
          "type": "uint256"
        }
      ],
      "payable": false,
      "stateMutability": "view",
      "type": "function"
    },
    {
      "constant": true,
      "inputs": [],
      "name": "winnerName",
      "outputs": [
        {
          "internalType": "string",
          "name": "winnerName_",
          "type": "string"
        }
      ],
      "payable": false,
      "stateMutability": "view",
      "type": "function"
    },
    {
      "constant": true,
      "inputs": [],
      "name": "alreadyVote",
      "outputs": [
        {
          "internalType": "bool",
          "name": "alreadyVote_",
          "type": "bool"
        }
      ],
      "payable": false,
      "stateMutability": "view",
      "type": "function"
    },
    {
      "constant": true,
      "inputs": [],
      "name": "getProposalList",
      "outputs": [
        {
          "components": [
            {
              "internalType": "string",
              "name": "name",
              "type": "string"
            },
            {
              "internalType": "uint256",
              "name": "voteCount",
              "type": "uint256"
            }
          ],
          "internalType": "struct Ballot.Proposal[]",
          "name": "",
          "type": "tuple[]"
        }
      ],
      "payable": false,
      "stateMutability": "view",
      "type": "function"
    },
    {
      "constant": true,
      "inputs": [
        {
          "internalType": "address",
          "name": "_address",
          "type": "address"
        }
      ],
      "name": "getVoter",
      "outputs": [
        {
          "components": [
            {
              "internalType": "uint256",
              "name": "weight",
              "type": "uint256"
            },
            {
              "internalType": "bool",
              "name": "voted",
              "type": "bool"
            },
            {
              "internalType": "address",
              "name": "delegate",
              "type": "address"
            },
            {
              "internalType": "uint256",
              "name": "vote",
              "type": "uint256"
            },
            {
              "internalType": "bool",
              "name": "isCreated",
              "type": "bool"
            }
          ],
          "internalType": "struct Ballot.Voter",
          "name": "",
          "type": "tuple"
        }
      ],
      "payable": false,
      "stateMutability": "view",
      "type": "function"
    },
    {
      "constant": true,
      "inputs": [],
      "name": "isChair",
      "outputs": [
        {
          "internalType": "bool",
          "name": "",
          "type": "bool"
        }
      ],
      "payable": false,
      "stateMutability": "view",
      "type": "function"
    }
  ],
  "bytecode": "0x60806040523480156200001157600080fd5b506040516200207738038062002077833981810160405262000037919081019062000465565b6000825114156200007f576040517f08c379a0000000000000000000000000000000000000000000000000000000008152600401620000769062000565565b60405180910390fd5b336000806101000a81548173ffffffffffffffffffffffffffffffffffffffff021916908373ffffffffffffffffffffffffffffffffffffffff1602179055506200013c60018060008060009054906101000a900473ffffffffffffffffffffffffffffffffffffffff1673ffffffffffffffffffffffffffffffffffffffff1673ffffffffffffffffffffffffffffffffffffffff168152602001908152602001600020600001546200026e60201b620010231790919060201c565b600160008060009054906101000a900473ffffffffffffffffffffffffffffffffffffffff1673ffffffffffffffffffffffffffffffffffffffff1673ffffffffffffffffffffffffffffffffffffffff1681526020019081526020016000206000018190555080600360006101000a81548163ffffffff021916908363ffffffff16021790555060008090505b8251811015620002655760026040518060400160405280858481518110620001ee57fe5b60200260200101518152602001600081525090806001815401808255809150509060018203906000526020600020906002020160009091929091909150600082015181600001908051906020019062000249929190620002c6565b50602082015181600101555050508080600101915050620001ca565b5050506200067c565b600080828401905083811015620002bc576040517f08c379a0000000000000000000000000000000000000000000000000000000008152600401620002b39062000543565b60405180910390fd5b8091505092915050565b828054600181600116156101000203166002900490600052602060002090601f016020900481019282601f106200030957805160ff19168380011785556200033a565b828001600101855582156200033a579182015b82811115620003395782518255916020019190600101906200031c565b5b5090506200034991906200034d565b5090565b6200037291905b808211156200036e57600081600090555060010162000354565b5090565b90565b600082601f8301126200038757600080fd5b81516200039e6200039882620005b5565b62000587565b9150818183526020840193506020810190508360005b83811015620003e85781518601620003cd8882620003f2565b845260208401935060208301925050600181019050620003b4565b5050505092915050565b600082601f8301126200040457600080fd5b81516200041b6200041582620005de565b62000587565b915080825260208301602083018583830111156200043857600080fd5b620004458382846200062c565b50505092915050565b6000815190506200045f8162000662565b92915050565b600080604083850312156200047957600080fd5b600083015167ffffffffffffffff8111156200049457600080fd5b620004a28582860162000375565b9250506020620004b5858286016200044e565b9150509250929050565b6000620004ce601b836200060b565b91507f536166654d6174683a206164646974696f6e206f766572666c6f7700000000006000830152602082019050919050565b6000620005106011836200060b565b91507f4e6f2070726f706f73616c206e616d65730000000000000000000000000000006000830152602082019050919050565b600060208201905081810360008301526200055e81620004bf565b9050919050565b60006020820190508181036000830152620005808162000501565b9050919050565b6000604051905081810181811067ffffffffffffffff82111715620005ab57600080fd5b8060405250919050565b600067ffffffffffffffff821115620005cd57600080fd5b602082029050602081019050919050565b600067ffffffffffffffff821115620005f657600080fd5b601f19601f8301169050602081019050919050565b600082825260208201905092915050565b600063ffffffff82169050919050565b60005b838110156200064c5780820151818401526020810190506200062f565b838111156200065c576000848401525b50505050565b6200066d816200061c565b81146200067957600080fd5b50565b6119eb806200068c6000396000f3fe608060405234801561001057600080fd5b50600436106100cf5760003560e01c806389244e2a1161008c578063a3ec138d11610066578063a3ec138d146101ef578063d4f50f9814610223578063e2ba53f014610253578063e42b203b14610271576100cf565b806389244e2a146101975780638f4813d3146101b55780639e7b8d61146101d3576100cf565b80630121b93f146100d4578063013cf08b146100f05780632e4176cf14610121578063346750f31461013f5780635c19a95c1461015d578063609ff1bd14610179575b600080fd5b6100ee60048036036100e9919081019061112e565b61028f565b005b61010a6004803603610105919081019061112e565b610448565b604051610118929190611679565b60405180910390f35b610129610511565b60405161013691906115ff565b60405180910390f35b610147610536565b604051610154919061161a565b60405180910390f35b61017760048036036101729190810190611105565b610694565b005b610181610a4f565b60405161018e91906117e4565b60405180910390f35b61019f610ac6565b6040516101ac9190611852565b60405180910390f35b6101bd610adc565b6040516101ca919061163c565b60405180910390f35b6101ed60048036036101e89190810190611105565b610b38565b005b61020960048036036102049190810190611105565b610d9e565b60405161021a9594939291906117ff565b60405180910390f35b61023d60048036036102389190810190611105565b610e0e565b60405161024a91906117c9565b60405180910390f35b61025b610f07565b6040516102689190611657565b60405180910390f35b610279610fcc565b604051610286919061163c565b60405180910390f35b42600360009054906101000a900463ffffffff1663ffffffff1610156102ea576040517f08c379a00000000000000000000000000000000000000000000000000000000081526004016102e190611769565b60405180910390fd5b6000600160003373ffffffffffffffffffffffffffffffffffffffff1673ffffffffffffffffffffffffffffffffffffffff1681526020019081526020016000209050600081600001541415610375576040517f08c379a000000000000000000000000000000000000000000000000000000000815260040161036c906116a9565b60405180910390fd5b8060010160009054906101000a900460ff16156103c7576040517f08c379a00000000000000000000000000000000000000000000000000000000081526004016103be906116e9565b60405180910390fd5b60018160010160006101000a81548160ff02191690831515021790555081816002018190555061042281600001546002848154811061040257fe5b90600052602060002090600202016001015461102390919063ffffffff16565b6002838154811061042f57fe5b9060005260206000209060020201600101819055505050565b6002818154811061045557fe5b9060005260206000209060020201600091509050806000018054600181600116156101000203166002900480601f0160208091040260200160405190810160405280929190818152602001828054600181600116156101000203166002900480156105015780601f106104d657610100808354040283529160200191610501565b820191906000526020600020905b8154815290600101906020018083116104e457829003601f168201915b5050505050908060010154905082565b6000809054906101000a900473ffffffffffffffffffffffffffffffffffffffff1681565b60606000600280549050905060608160405190808252806020026020018201604052801561057e57816020015b61056b611078565b8152602001906001900390816105635790505b50905060008090505b8281101561068b5760006002828154811061059e57fe5b9060005260206000209060020201905080604051806040016040529081600082018054600181600116156101000203166002900480601f0160208091040260200160405190810160405280929190818152602001828054600181600116156101000203166002900480156106535780601f1061062857610100808354040283529160200191610653565b820191906000526020600020905b81548152906001019060200180831161063657829003601f168201915b5050505050815260200160018201548152505083838151811061067257fe5b6020026020010181905250508080600101915050610587565b50809250505090565b6000600160003373ffffffffffffffffffffffffffffffffffffffff1673ffffffffffffffffffffffffffffffffffffffff16815260200190815260200160002090508060010160009054906101000a900460ff1615610729576040517f08c379a000000000000000000000000000000000000000000000000000000000815260040161072090611709565b60405180910390fd5b3373ffffffffffffffffffffffffffffffffffffffff168273ffffffffffffffffffffffffffffffffffffffff161415610798576040517f08c379a000000000000000000000000000000000000000000000000000000000815260040161078f906117a9565b60405180910390fd5b5b600073ffffffffffffffffffffffffffffffffffffffff16600160008473ffffffffffffffffffffffffffffffffffffffff1673ffffffffffffffffffffffffffffffffffffffff16815260200190815260200160002060010160019054906101000a900473ffffffffffffffffffffffffffffffffffffffff1673ffffffffffffffffffffffffffffffffffffffff161461090857600160008373ffffffffffffffffffffffffffffffffffffffff1673ffffffffffffffffffffffffffffffffffffffff16815260200190815260200160002060010160019054906101000a900473ffffffffffffffffffffffffffffffffffffffff1691503373ffffffffffffffffffffffffffffffffffffffff168273ffffffffffffffffffffffffffffffffffffffff161415610903576040517f08c379a00000000000000000000000000000000000000000000000000000000081526004016108fa90611749565b60405180910390fd5b610799565b60018160010160006101000a81548160ff021916908315150217905550818160010160016101000a81548173ffffffffffffffffffffffffffffffffffffffff021916908373ffffffffffffffffffffffffffffffffffffffff1602179055506000600160008473ffffffffffffffffffffffffffffffffffffffff1673ffffffffffffffffffffffffffffffffffffffff16815260200190815260200160002090508060010160009054906101000a900460ff1615610a26576109fb826000015460028360020154815481106109db57fe5b90600052602060002090600202016001015461102390919063ffffffff16565b6002826002015481548110610a0c57fe5b906000526020600020906002020160010181905550610a4a565b610a418260000154826000015461102390919063ffffffff16565b81600001819055505b505050565b6000806000905060008090505b600280549050811015610ac1578160028281548110610a7757fe5b9060005260206000209060020201600101541115610ab45760028181548110610a9c57fe5b90600052602060002090600202016001015491508092505b8080600101915050610a5c565b505090565b600360009054906101000a900463ffffffff1681565b600080600160003373ffffffffffffffffffffffffffffffffffffffff1673ffffffffffffffffffffffffffffffffffffffff16815260200190815260200160002090508060010160009054906101000a900460ff1691505090565b6000809054906101000a900473ffffffffffffffffffffffffffffffffffffffff1673ffffffffffffffffffffffffffffffffffffffff163373ffffffffffffffffffffffffffffffffffffffff1614610bc7576040517f08c379a0000000000000000000000000000000000000000000000000000000008152600401610bbe90611729565b60405180910390fd5b600160008273ffffffffffffffffffffffffffffffffffffffff1673ffffffffffffffffffffffffffffffffffffffff16815260200190815260200160002060010160009054906101000a900460ff1615610c57576040517f08c379a0000000000000000000000000000000000000000000000000000000008152600401610c4e90611789565b60405180910390fd5b6000600160008373ffffffffffffffffffffffffffffffffffffffff1673ffffffffffffffffffffffffffffffffffffffff1681526020019081526020016000206000015414610ca657600080fd5b610cfb60018060008473ffffffffffffffffffffffffffffffffffffffff1673ffffffffffffffffffffffffffffffffffffffff1681526020019081526020016000206000015461102390919063ffffffff16565b600160008373ffffffffffffffffffffffffffffffffffffffff1673ffffffffffffffffffffffffffffffffffffffff1681526020019081526020016000206000018190555060018060008373ffffffffffffffffffffffffffffffffffffffff1673ffffffffffffffffffffffffffffffffffffffff16815260200190815260200160002060030160006101000a81548160ff02191690831515021790555050565b60016020528060005260406000206000915090508060000154908060010160009054906101000a900460ff16908060010160019054906101000a900473ffffffffffffffffffffffffffffffffffffffff16908060020154908060030160009054906101000a900460ff16905085565b610e16611092565b600160008373ffffffffffffffffffffffffffffffffffffffff1673ffffffffffffffffffffffffffffffffffffffff1681526020019081526020016000206040518060a0016040529081600082015481526020016001820160009054906101000a900460ff161515151581526020016001820160019054906101000a900473ffffffffffffffffffffffffffffffffffffffff1673ffffffffffffffffffffffffffffffffffffffff1673ffffffffffffffffffffffffffffffffffffffff168152602001600282015481526020016003820160009054906101000a900460ff1615151515815250509050919050565b60606002610f13610a4f565b81548110610f1d57fe5b90600052602060002090600202016000018054600181600116156101000203166002900480601f016020809104026020016040519081016040528092919081815260200182805460018160011615610100020316600290048015610fc25780601f10610f9757610100808354040283529160200191610fc2565b820191906000526020600020905b815481529060010190602001808311610fa557829003601f168201915b5050505050905090565b60008060009054906101000a900473ffffffffffffffffffffffffffffffffffffffff1673ffffffffffffffffffffffffffffffffffffffff163373ffffffffffffffffffffffffffffffffffffffff1614905090565b60008082840190508381101561106e576040517f08c379a0000000000000000000000000000000000000000000000000000000008152600401611065906116c9565b60405180910390fd5b8091505092915050565b604051806040016040528060608152602001600081525090565b6040518060a0016040528060008152602001600015158152602001600073ffffffffffffffffffffffffffffffffffffffff168152602001600081526020016000151581525090565b6000813590506110ea8161197a565b92915050565b6000813590506110ff81611991565b92915050565b60006020828403121561111757600080fd5b6000611125848285016110db565b91505092915050565b60006020828403121561114057600080fd5b600061114e848285016110f0565b91505092915050565b6000611163838361152d565b905092915050565b611174816118de565b82525050565b611183816118de565b82525050565b60006111948261187d565b61119e81856118ab565b9350836020820285016111b08561186d565b8060005b858110156111ec57848403895281516111cd8582611157565b94506111d88361189e565b925060208a019950506001810190506111b4565b50829750879550505050505092915050565b611207816118f0565b82525050565b611216816118f0565b82525050565b600061122782611893565b61123181856118cd565b9350611241818560208601611936565b61124a81611969565b840191505092915050565b600061126082611888565b61126a81856118bc565b935061127a818560208601611936565b61128381611969565b840191505092915050565b600061129982611888565b6112a381856118cd565b93506112b3818560208601611936565b6112bc81611969565b840191505092915050565b60006112d46014836118cd565b91507f486173206e6f20726967687420746f20766f74650000000000000000000000006000830152602082019050919050565b6000611314601b836118cd565b91507f536166654d6174683a206164646974696f6e206f766572666c6f7700000000006000830152602082019050919050565b6000611354600e836118cd565b91507f416c726561647920766f7465642e0000000000000000000000000000000000006000830152602082019050919050565b60006113946012836118cd565b91507f596f7520616c726561647920766f7465642e00000000000000000000000000006000830152602082019050919050565b60006113d46028836118cd565b91507f4f6e6c79206368616972706572736f6e2063616e20676976652072696768742060008301527f746f20766f74652e0000000000000000000000000000000000000000000000006020830152604082019050919050565b600061143a6019836118cd565b91507f466f756e64206c6f6f7020696e2064656c65676174696f6e2e000000000000006000830152602082019050919050565b600061147a600e836118cd565b91507f416c726561647920436c6f7365640000000000000000000000000000000000006000830152602082019050919050565b60006114ba6018836118cd565b91507f54686520766f74657220616c726561647920766f7465642e00000000000000006000830152602082019050919050565b60006114fa601e836118cd565b91507f53656c662d64656c65676174696f6e20697320646973616c6c6f7765642e00006000830152602082019050919050565b6000604083016000830151848203600086015261154a8282611255565b915050602083015161155f60208601826115d2565b508091505092915050565b60a08201600082015161158060008501826115d2565b50602082015161159360208501826111fe565b5060408201516115a6604085018261116b565b5060608201516115b960608501826115d2565b5060808201516115cc60808501826111fe565b50505050565b6115db8161191c565b82525050565b6115ea8161191c565b82525050565b6115f981611926565b82525050565b6000602082019050611614600083018461117a565b92915050565b600060208201905081810360008301526116348184611189565b905092915050565b6000602082019050611651600083018461120d565b92915050565b60006020820190508181036000830152611671818461121c565b905092915050565b60006040820190508181036000830152611693818561128e565b90506116a260208301846115e1565b9392505050565b600060208201905081810360008301526116c2816112c7565b9050919050565b600060208201905081810360008301526116e281611307565b9050919050565b6000602082019050818103600083015261170281611347565b9050919050565b6000602082019050818103600083015261172281611387565b9050919050565b60006020820190508181036000830152611742816113c7565b9050919050565b600060208201905081810360008301526117628161142d565b9050919050565b600060208201905081810360008301526117828161146d565b9050919050565b600060208201905081810360008301526117a2816114ad565b9050919050565b600060208201905081810360008301526117c2816114ed565b9050919050565b600060a0820190506117de600083018461156a565b92915050565b60006020820190506117f960008301846115e1565b92915050565b600060a08201905061181460008301886115e1565b611821602083018761120d565b61182e604083018661117a565b61183b60608301856115e1565b611848608083018461120d565b9695505050505050565b600060208201905061186760008301846115f0565b92915050565b6000819050602082019050919050565b600081519050919050565b600081519050919050565b600081519050919050565b6000602082019050919050565b600082825260208201905092915050565b600082825260208201905092915050565b600082825260208201905092915050565b60006118e9826118fc565b9050919050565b60008115159050919050565b600073ffffffffffffffffffffffffffffffffffffffff82169050919050565b6000819050919050565b600063ffffffff82169050919050565b60005b83811015611954578082015181840152602081019050611939565b83811115611963576000848401525b50505050565b6000601f19601f8301169050919050565b611983816118de565b811461198e57600080fd5b50565b61199a8161191c565b81146119a557600080fd5b5056fea365627a7a72315820d2a90e96ad57d44c81f684c3c56b3aff84e59c2a5de7a517c014f2b049a993ee6c6578706572696d656e74616cf564736f6c63430005100040",
  "source": "pragma solidity >=0.4.20;\r\npragma experimental ABIEncoderV2;\r\n\r\nimport \"./SafeMath.sol\";\r\n\r\n/** \r\n * @title Ballot\r\n * @dev Implements voting process along with vote delegation\r\n */\r\ncontract Ballot {\r\n   \r\n  using SafeMath for uint256;\r\n  \r\n    struct Voter {\r\n        uint weight;\r\n        bool voted;\r\n        address delegate;\r\n        uint vote;\r\n        bool isCreated;\r\n    }\r\n\r\n    struct Proposal {\r\n        string name;\r\n        uint voteCount;\r\n    }\r\n\r\n    address public chairperson;\r\n\r\n    mapping(address => Voter) public voters;\r\n\r\n    Proposal[] public proposals;\r\n    \r\n    uint32 public dateEnd;\r\n\r\n    /** \r\n     * @dev Create a new ballot to choose one of 'proposalNames'.\r\n     * @param _proposalNames names of proposals\r\n     */\r\n    constructor(string[] memory _proposalNames, uint32 _dateEnd) public {\r\n        require(\r\n            _proposalNames.length != 0,\r\n            \"No proposal names\"\r\n        );\r\n        chairperson = msg.sender;\r\n        voters[chairperson].weight = voters[chairperson].weight.add(1);\r\n        dateEnd = _dateEnd;\r\n\r\n        for (uint i = 0; i < _proposalNames.length; i++) {\r\n            proposals.push(Proposal({\r\n                name: _proposalNames[i],\r\n                voteCount: 0\r\n            }));\r\n        }\r\n    }\r\n    \r\n    /** \r\n     * @dev Give 'voter' the right to vote on this ballot. May only be called by 'chairperson'.\r\n     * @param _voter address of voter\r\n     */\r\n    function giveRightToVote(address _voter) public {\r\n        require(\r\n            msg.sender == chairperson,\r\n            \"Only chairperson can give right to vote.\"\r\n        );\r\n        require(\r\n            !voters[_voter].voted,\r\n            \"The voter already voted.\"\r\n        );\r\n        require(voters[_voter].weight == 0);\r\n        voters[_voter].weight = voters[_voter].weight.add(1);\r\n        voters[_voter].isCreated = true;\r\n    }\r\n\r\n    /**\r\n     * @dev Delegate your vote to the voter 'to'.\r\n     * @param _to address to which vote is delegated\r\n     */\r\n    function delegate(address _to) public {\r\n        Voter storage sender = voters[msg.sender];\r\n        require(!sender.voted, \"You already voted.\");\r\n        require(_to != msg.sender, \"Self-delegation is disallowed.\");\r\n\r\n        while (voters[_to].delegate != address(0)) {\r\n            _to = voters[_to].delegate;\r\n\r\n            // We found a loop in the delegation, not allowed.\r\n            require(_to != msg.sender, \"Found loop in delegation.\");\r\n        }\r\n        sender.voted = true;\r\n        sender.delegate = _to;\r\n        Voter storage delegate_ = voters[_to];\r\n        if (delegate_.voted) {\r\n            // If the delegate already voted,\r\n            // directly add to the number of votes\r\n            proposals[delegate_.vote].voteCount = proposals[delegate_.vote].voteCount.add(sender.weight);\r\n        } else {\r\n            // If the delegate did not vote yet,\r\n            // add to her weight.\r\n            delegate_.weight = delegate_.weight.add(sender.weight);\r\n        }\r\n    }\r\n\r\n    /**\r\n     * @dev Give your vote (including votes delegated to you) to proposal 'proposals[proposal].name'.\r\n     * @param _proposal index of proposal in the proposals array\r\n     */\r\n    function vote(uint _proposal) public {\r\n        require(dateEnd >= now, \"Already Closed\");\r\n        Voter storage sender = voters[msg.sender];\r\n        require(sender.weight != 0, \"Has no right to vote\");\r\n        require(!sender.voted, \"Already voted.\");\r\n        sender.voted = true;\r\n        sender.vote = _proposal;\r\n\r\n        // If 'proposal' is out of the range of the array,\r\n        // this will throw automatically and revert all\r\n        // changes.\r\n        proposals[_proposal].voteCount = proposals[_proposal].voteCount.add(sender.weight);\r\n    }\r\n\r\n    /**\r\n     * @dev Computes the winning proposal taking all previous votes into account.\r\n     * @return winningProposal_ index of winning proposal in the proposals array\r\n     */\r\n    function winningProposal() public view\r\n            returns (uint winningProposal_)\r\n    {\r\n        uint winningVoteCount = 0;\r\n        for (uint p = 0; p < proposals.length; p++) {\r\n            if (proposals[p].voteCount > winningVoteCount) {\r\n                winningVoteCount = proposals[p].voteCount;\r\n                winningProposal_ = p;\r\n            }\r\n        }\r\n    }\r\n\r\n    /**\r\n     * @dev Calls winningProposal() function to get the index of the winner contained in the proposals array and then\r\n     * @return winnerName_ the name of the winner\r\n     */\r\n    function winnerName() public view\r\n            returns (string memory winnerName_)\r\n    {\r\n        winnerName_ = proposals[winningProposal()].name;\r\n    }\r\n\r\n    /**\r\n     * @dev Calls alreadyVote() function verify if a voter as already voter\r\n     * @return alreadyVote_\r\n     */\r\n    function alreadyVote() public view returns(bool alreadyVote_)\r\n    {\r\n        Voter storage sender = voters[msg.sender];\r\n        alreadyVote_ = sender.voted;\r\n    }\r\n\r\n    /**\r\n     * @dev Calls getProposalList() function that return all proposals\r\n     */\r\n    function getProposalList() public view returns(Proposal[] memory)\r\n    {\r\n        uint length = proposals.length;\r\n        Proposal[] memory listProposal = new Proposal[](length);\r\n        for (uint i = 0; i < length; i++) {\r\n            Proposal storage item = proposals[i];\r\n            listProposal[i] = item;\r\n        }\r\n        return listProposal;\r\n    }\r\n\r\n    function getVoter(address _address) public view returns (Voter memory)\r\n    {\r\n        return voters[_address];\r\n    }\r\n\r\n    function isChair() public view returns (bool)\r\n    {\r\n        return msg.sender == chairperson;\r\n    }\r\n}\r\n",
  "sourcePath": "D:\\Course\\5BLOCK\\project\\contracts\\Ballot.sol",
  "compiler": {
    "name": "solc",
    "version": "0.5.16+commit.9c3226ce.Emscripten.clang"
  },
  "schemaVersion": "3.0.23",
  "updatedAt": "2020-03-29T13:23:33.538Z",
  "networkType": "ethereum",
  "devdoc": {
    "details": "Implements voting process along with vote delegation",
    "methods": {
      "alreadyVote()": {
        "details": "Calls alreadyVote() function verify if a voter as already voter",
        "return": "alreadyVote_"
      },
      "constructor": {
        "details": "Create a new ballot to choose one of 'proposalNames'.",
        "params": {
          "_proposalNames": "names of proposals"
        }
      },
      "delegate(address)": {
        "details": "Delegate your vote to the voter 'to'.",
        "params": {
          "_to": "address to which vote is delegated"
        }
      },
      "getProposalList()": {
        "details": "Calls getProposalList() function that return all proposals"
      },
      "giveRightToVote(address)": {
        "details": "Give 'voter' the right to vote on this ballot. May only be called by 'chairperson'.",
        "params": {
          "_voter": "address of voter"
        }
      },
      "vote(uint256)": {
        "details": "Give your vote (including votes delegated to you) to proposal 'proposals[proposal].name'.",
        "params": {
          "_proposal": "index of proposal in the proposals array"
        }
      },
      "winnerName()": {
        "details": "Calls winningProposal() function to get the index of the winner contained in the proposals array and then",
        "return": "winnerName_ the name of the winner"
      },
      "winningProposal()": {
        "details": "Computes the winning proposal taking all previous votes into account.",
        "return": "winningProposal_ index of winning proposal in the proposals array"
      }
    },
    "title": "Ballot"
  },
  "userdoc": {
    "methods": {}
  }
}