{
  "contractName": "Ballot",
  "abi": [
    {
      "inputs": [
        {
          "internalType": "string[]",
          "name": "_proposalNames",
          "type": "string[]"
        },
        {
          "internalType": "uint32",
          "name": "_dateEnd",
          "type": "uint32"
        }
      ],
      "payable": false,
      "stateMutability": "nonpayable",
      "type": "constructor"
    },
    {
      "constant": true,
      "inputs": [],
      "name": "chairperson",
      "outputs": [
        {
          "internalType": "address",
          "name": "",
          "type": "address"
        }
      ],
      "payable": false,
      "stateMutability": "view",
      "type": "function"
    },
    {
      "constant": true,
      "inputs": [],
      "name": "dateEnd",
      "outputs": [
        {
          "internalType": "uint32",
          "name": "",
          "type": "uint32"
        }
      ],
      "payable": false,
      "stateMutability": "view",
      "type": "function"
    },
    {
      "constant": true,
      "inputs": [
        {
          "internalType": "uint256",
          "name": "",
          "type": "uint256"
        }
      ],
      "name": "proposals",
      "outputs": [
        {
          "internalType": "string",
          "name": "name",
          "type": "string"
        },
        {
          "internalType": "uint256",
          "name": "voteCount",
          "type": "uint256"
        }
      ],
      "payable": false,
      "stateMutability": "view",
      "type": "function"
    },
    {
      "constant": true,
      "inputs": [
        {
          "internalType": "address",
          "name": "",
          "type": "address"
        }
      ],
      "name": "voters",
      "outputs": [
        {
          "internalType": "uint256",
          "name": "weight",
          "type": "uint256"
        },
        {
          "internalType": "bool",
          "name": "voted",
          "type": "bool"
        },
        {
          "internalType": "address",
          "name": "delegate",
          "type": "address"
        },
        {
          "internalType": "uint256",
          "name": "vote",
          "type": "uint256"
        }
      ],
      "payable": false,
      "stateMutability": "view",
      "type": "function"
    },
    {
      "constant": false,
      "inputs": [
        {
          "internalType": "address",
          "name": "_voter",
          "type": "address"
        }
      ],
      "name": "giveRightToVote",
      "outputs": [],
      "payable": false,
      "stateMutability": "nonpayable",
      "type": "function"
    },
    {
      "constant": false,
      "inputs": [
        {
          "internalType": "address",
          "name": "_to",
          "type": "address"
        }
      ],
      "name": "delegate",
      "outputs": [],
      "payable": false,
      "stateMutability": "nonpayable",
      "type": "function"
    },
    {
      "constant": false,
      "inputs": [
        {
          "internalType": "uint256",
          "name": "_proposal",
          "type": "uint256"
        }
      ],
      "name": "vote",
      "outputs": [],
      "payable": false,
      "stateMutability": "nonpayable",
      "type": "function"
    },
    {
      "constant": true,
      "inputs": [],
      "name": "winningProposal",
      "outputs": [
        {
          "internalType": "uint256",
          "name": "winningProposal_",
          "type": "uint256"
        }
      ],
      "payable": false,
      "stateMutability": "view",
      "type": "function"
    },
    {
      "constant": true,
      "inputs": [],
      "name": "winnerName",
      "outputs": [
        {
          "internalType": "string",
          "name": "winnerName_",
          "type": "string"
        }
      ],
      "payable": false,
      "stateMutability": "view",
      "type": "function"
    },
    {
      "constant": true,
      "inputs": [],
      "name": "alreadyVote",
      "outputs": [
        {
          "internalType": "bool",
          "name": "alreadyVote_",
          "type": "bool"
        }
      ],
      "payable": false,
      "stateMutability": "view",
      "type": "function"
    }
  ],
  "bytecode": "0x60806040523480156200001157600080fd5b50604051620018f0380380620018f083398181016040526200003791908101906200041d565b336000806101000a81548173ffffffffffffffffffffffffffffffffffffffff021916908373ffffffffffffffffffffffffffffffffffffffff160217905550620000f460018060008060009054906101000a900473ffffffffffffffffffffffffffffffffffffffff1673ffffffffffffffffffffffffffffffffffffffff1673ffffffffffffffffffffffffffffffffffffffff168152602001908152602001600020600001546200022660201b62000c341790919060201c565b600160008060009054906101000a900473ffffffffffffffffffffffffffffffffffffffff1673ffffffffffffffffffffffffffffffffffffffff1673ffffffffffffffffffffffffffffffffffffffff1681526020019081526020016000206000018190555080600360006101000a81548163ffffffff021916908363ffffffff16021790555060008090505b82518110156200021d5760026040518060400160405280858481518110620001a657fe5b602002602001015181526020016000815250908060018154018082558091505090600182039060005260206000209060020201600090919290919091506000820151816000019080519060200190620002019291906200027e565b5060208201518160010155505050808060010191505062000182565b505050620005d0565b60008082840190508381101562000274576040517f08c379a00000000000000000000000000000000000000000000000000000000081526004016200026b90620004b9565b60405180910390fd5b8091505092915050565b828054600181600116156101000203166002900490600052602060002090601f016020900481019282601f10620002c157805160ff1916838001178555620002f2565b82800160010185558215620002f2579182015b82811115620002f1578251825591602001919060010190620002d4565b5b50905062000301919062000305565b5090565b6200032a91905b80821115620003265760008160009055506001016200030c565b5090565b90565b600082601f8301126200033f57600080fd5b815162000356620003508262000509565b620004db565b9150818183526020840193506020810190508360005b83811015620003a05781518601620003858882620003aa565b8452602084019350602083019250506001810190506200036c565b5050505092915050565b600082601f830112620003bc57600080fd5b8151620003d3620003cd8262000532565b620004db565b91508082526020830160208301858383011115620003f057600080fd5b620003fd83828462000580565b50505092915050565b6000815190506200041781620005b6565b92915050565b600080604083850312156200043157600080fd5b600083015167ffffffffffffffff8111156200044c57600080fd5b6200045a858286016200032d565b92505060206200046d8582860162000406565b9150509250929050565b600062000486601b836200055f565b91507f536166654d6174683a206164646974696f6e206f766572666c6f7700000000006000830152602082019050919050565b60006020820190508181036000830152620004d48162000477565b9050919050565b6000604051905081810181811067ffffffffffffffff82111715620004ff57600080fd5b8060405250919050565b600067ffffffffffffffff8211156200052157600080fd5b602082029050602081019050919050565b600067ffffffffffffffff8211156200054a57600080fd5b601f19601f8301169050602081019050919050565b600082825260208201905092915050565b600063ffffffff82169050919050565b60005b83811015620005a057808201518184015260208101905062000583565b83811115620005b0576000848401525b50505050565b620005c18162000570565b8114620005cd57600080fd5b50565b61131080620005e06000396000f3fe608060405234801561001057600080fd5b506004361061009e5760003560e01c806389244e2a1161006657806389244e2a146101485780638f4813d3146101665780639e7b8d6114610184578063a3ec138d146101a0578063e2ba53f0146101d35761009e565b80630121b93f146100a3578063013cf08b146100bf5780632e4176cf146100f05780635c19a95c1461010e578063609ff1bd1461012a575b600080fd5b6100bd60048036036100b89190810190610cdc565b6101f1565b005b6100d960048036036100d49190810190610cdc565b610374565b6040516100e7929190611031565b60405180910390f35b6100f861043d565b6040516101059190610fd9565b60405180910390f35b61012860048036036101239190810190610cb3565b610462565b005b61013261081d565b60405161013f9190611161565b60405180910390f35b610150610894565b60405161015d91906111c1565b60405180910390f35b61016e6108aa565b60405161017b9190610ff4565b60405180910390f35b61019e60048036036101999190810190610cb3565b610906565b005b6101ba60048036036101b59190810190610cb3565b610b12565b6040516101ca949392919061117c565b60405180910390f35b6101db610b6f565b6040516101e8919061100f565b60405180910390f35b42600360009054906101000a900463ffffffff1663ffffffff16101561021657600080fd5b6000600160003373ffffffffffffffffffffffffffffffffffffffff1673ffffffffffffffffffffffffffffffffffffffff16815260200190815260200160002090506000816000015414156102a1576040517f08c379a000000000000000000000000000000000000000000000000000000000815260040161029890611061565b60405180910390fd5b8060010160009054906101000a900460ff16156102f3576040517f08c379a00000000000000000000000000000000000000000000000000000000081526004016102ea906110a1565b60405180910390fd5b60018160010160006101000a81548160ff02191690831515021790555081816002018190555061034e81600001546002848154811061032e57fe5b906000526020600020906002020160010154610c3490919063ffffffff16565b6002838154811061035b57fe5b9060005260206000209060020201600101819055505050565b6002818154811061038157fe5b9060005260206000209060020201600091509050806000018054600181600116156101000203166002900480601f01602080910402602001604051908101604052809291908181526020018280546001816001161561010002031660029004801561042d5780601f106104025761010080835404028352916020019161042d565b820191906000526020600020905b81548152906001019060200180831161041057829003601f168201915b5050505050908060010154905082565b6000809054906101000a900473ffffffffffffffffffffffffffffffffffffffff1681565b6000600160003373ffffffffffffffffffffffffffffffffffffffff1673ffffffffffffffffffffffffffffffffffffffff16815260200190815260200160002090508060010160009054906101000a900460ff16156104f7576040517f08c379a00000000000000000000000000000000000000000000000000000000081526004016104ee906110c1565b60405180910390fd5b3373ffffffffffffffffffffffffffffffffffffffff168273ffffffffffffffffffffffffffffffffffffffff161415610566576040517f08c379a000000000000000000000000000000000000000000000000000000000815260040161055d90611141565b60405180910390fd5b5b600073ffffffffffffffffffffffffffffffffffffffff16600160008473ffffffffffffffffffffffffffffffffffffffff1673ffffffffffffffffffffffffffffffffffffffff16815260200190815260200160002060010160019054906101000a900473ffffffffffffffffffffffffffffffffffffffff1673ffffffffffffffffffffffffffffffffffffffff16146106d657600160008373ffffffffffffffffffffffffffffffffffffffff1673ffffffffffffffffffffffffffffffffffffffff16815260200190815260200160002060010160019054906101000a900473ffffffffffffffffffffffffffffffffffffffff1691503373ffffffffffffffffffffffffffffffffffffffff168273ffffffffffffffffffffffffffffffffffffffff1614156106d1576040517f08c379a00000000000000000000000000000000000000000000000000000000081526004016106c890611101565b60405180910390fd5b610567565b60018160010160006101000a81548160ff021916908315150217905550818160010160016101000a81548173ffffffffffffffffffffffffffffffffffffffff021916908373ffffffffffffffffffffffffffffffffffffffff1602179055506000600160008473ffffffffffffffffffffffffffffffffffffffff1673ffffffffffffffffffffffffffffffffffffffff16815260200190815260200160002090508060010160009054906101000a900460ff16156107f4576107c9826000015460028360020154815481106107a957fe5b906000526020600020906002020160010154610c3490919063ffffffff16565b60028260020154815481106107da57fe5b906000526020600020906002020160010181905550610818565b61080f82600001548260000154610c3490919063ffffffff16565b81600001819055505b505050565b6000806000905060008090505b60028054905081101561088f57816002828154811061084557fe5b9060005260206000209060020201600101541115610882576002818154811061086a57fe5b90600052602060002090600202016001015491508092505b808060010191505061082a565b505090565b600360009054906101000a900463ffffffff1681565b600080600160003373ffffffffffffffffffffffffffffffffffffffff1673ffffffffffffffffffffffffffffffffffffffff16815260200190815260200160002090508060010160009054906101000a900460ff1691505090565b6000809054906101000a900473ffffffffffffffffffffffffffffffffffffffff1673ffffffffffffffffffffffffffffffffffffffff163373ffffffffffffffffffffffffffffffffffffffff1614610995576040517f08c379a000000000000000000000000000000000000000000000000000000000815260040161098c906110e1565b60405180910390fd5b600160008273ffffffffffffffffffffffffffffffffffffffff1673ffffffffffffffffffffffffffffffffffffffff16815260200190815260200160002060010160009054906101000a900460ff1615610a25576040517f08c379a0000000000000000000000000000000000000000000000000000000008152600401610a1c90611121565b60405180910390fd5b6000600160008373ffffffffffffffffffffffffffffffffffffffff1673ffffffffffffffffffffffffffffffffffffffff1681526020019081526020016000206000015414610a7457600080fd5b610ac960018060008473ffffffffffffffffffffffffffffffffffffffff1673ffffffffffffffffffffffffffffffffffffffff16815260200190815260200160002060000154610c3490919063ffffffff16565b600160008373ffffffffffffffffffffffffffffffffffffffff1673ffffffffffffffffffffffffffffffffffffffff1681526020019081526020016000206000018190555050565b60016020528060005260406000206000915090508060000154908060010160009054906101000a900460ff16908060010160019054906101000a900473ffffffffffffffffffffffffffffffffffffffff16908060020154905084565b60606002610b7b61081d565b81548110610b8557fe5b90600052602060002090600202016000018054600181600116156101000203166002900480601f016020809104026020016040519081016040528092919081815260200182805460018160011615610100020316600290048015610c2a5780601f10610bff57610100808354040283529160200191610c2a565b820191906000526020600020905b815481529060010190602001808311610c0d57829003601f168201915b5050505050905090565b600080828401905083811015610c7f576040517f08c379a0000000000000000000000000000000000000000000000000000000008152600401610c7690611081565b60405180910390fd5b8091505092915050565b600081359050610c988161129f565b92915050565b600081359050610cad816112b6565b92915050565b600060208284031215610cc557600080fd5b6000610cd384828501610c89565b91505092915050565b600060208284031215610cee57600080fd5b6000610cfc84828501610c9e565b91505092915050565b610d0e81611203565b82525050565b610d1d81611215565b82525050565b6000610d2e826111e7565b610d3881856111f2565b9350610d4881856020860161125b565b610d518161128e565b840191505092915050565b6000610d67826111dc565b610d7181856111f2565b9350610d8181856020860161125b565b610d8a8161128e565b840191505092915050565b6000610da26014836111f2565b91507f486173206e6f20726967687420746f20766f74650000000000000000000000006000830152602082019050919050565b6000610de2601b836111f2565b91507f536166654d6174683a206164646974696f6e206f766572666c6f7700000000006000830152602082019050919050565b6000610e22600e836111f2565b91507f416c726561647920766f7465642e0000000000000000000000000000000000006000830152602082019050919050565b6000610e626012836111f2565b91507f596f7520616c726561647920766f7465642e00000000000000000000000000006000830152602082019050919050565b6000610ea26028836111f2565b91507f4f6e6c79206368616972706572736f6e2063616e20676976652072696768742060008301527f746f20766f74652e0000000000000000000000000000000000000000000000006020830152604082019050919050565b6000610f086019836111f2565b91507f466f756e64206c6f6f7020696e2064656c65676174696f6e2e000000000000006000830152602082019050919050565b6000610f486018836111f2565b91507f54686520766f74657220616c726561647920766f7465642e00000000000000006000830152602082019050919050565b6000610f88601e836111f2565b91507f53656c662d64656c65676174696f6e20697320646973616c6c6f7765642e00006000830152602082019050919050565b610fc481611241565b82525050565b610fd38161124b565b82525050565b6000602082019050610fee6000830184610d05565b92915050565b60006020820190506110096000830184610d14565b92915050565b600060208201905081810360008301526110298184610d23565b905092915050565b6000604082019050818103600083015261104b8185610d5c565b905061105a6020830184610fbb565b9392505050565b6000602082019050818103600083015261107a81610d95565b9050919050565b6000602082019050818103600083015261109a81610dd5565b9050919050565b600060208201905081810360008301526110ba81610e15565b9050919050565b600060208201905081810360008301526110da81610e55565b9050919050565b600060208201905081810360008301526110fa81610e95565b9050919050565b6000602082019050818103600083015261111a81610efb565b9050919050565b6000602082019050818103600083015261113a81610f3b565b9050919050565b6000602082019050818103600083015261115a81610f7b565b9050919050565b60006020820190506111766000830184610fbb565b92915050565b60006080820190506111916000830187610fbb565b61119e6020830186610d14565b6111ab6040830185610d05565b6111b86060830184610fbb565b95945050505050565b60006020820190506111d66000830184610fca565b92915050565b600081519050919050565b600081519050919050565b600082825260208201905092915050565b600061120e82611221565b9050919050565b60008115159050919050565b600073ffffffffffffffffffffffffffffffffffffffff82169050919050565b6000819050919050565b600063ffffffff82169050919050565b60005b8381101561127957808201518184015260208101905061125e565b83811115611288576000848401525b50505050565b6000601f19601f8301169050919050565b6112a881611203565b81146112b357600080fd5b50565b6112bf81611241565b81146112ca57600080fd5b5056fea365627a7a72315820278ae51c90d559d95a5e667c3a8582103d6fa69febeaa5222be8158e39b2215a6c6578706572696d656e74616cf564736f6c63430005100040",
  "source": "pragma solidity >=0.4.20;\r\npragma experimental ABIEncoderV2;\r\n\r\nimport \"./SafeMath.sol\";\r\n\r\n/** \r\n * @title Ballot\r\n * @dev Implements voting process along with vote delegation\r\n */\r\ncontract Ballot {\r\n   \r\n  using SafeMath for uint256;\r\n  \r\n    struct Voter {\r\n        uint weight; // weight is accumulated by delegation\r\n        bool voted;  // if true, that person already voted\r\n        address delegate; // person delegated to\r\n        uint vote;   // index of the voted proposal\r\n    }\r\n\r\n    struct Proposal {\r\n        // If you can limit the length to a certain number of bytes, \r\n        // always use one of bytes1 to bytes32 because they are much cheaper\r\n        string name;   // short name (up to 32 bytes)\r\n        uint voteCount; // number of accumulated votes\r\n    }\r\n\r\n    address public chairperson;\r\n\r\n    mapping(address => Voter) public voters;\r\n\r\n    Proposal[] public proposals;\r\n    \r\n    uint32 public dateEnd;\r\n\r\n    /** \r\n     * @dev Create a new ballot to choose one of 'proposalNames'.\r\n     * @param _proposalNames names of proposals\r\n     */\r\n    constructor(string[] memory _proposalNames, uint32 _dateEnd) public {\r\n        chairperson = msg.sender;\r\n        voters[chairperson].weight = voters[chairperson].weight.add(1);\r\n        dateEnd = _dateEnd;\r\n        \r\n\r\n        for (uint i = 0; i < _proposalNames.length; i++) {\r\n            // 'Proposal({...})' creates a temporary\r\n            // Proposal object and 'proposals.push(...)'\r\n            // appends it to the end of 'proposals'.\r\n            proposals.push(Proposal({\r\n                name: _proposalNames[i],\r\n                voteCount: 0\r\n            }));\r\n        }\r\n    }\r\n    \r\n    /** \r\n     * @dev Give 'voter' the right to vote on this ballot. May only be called by 'chairperson'.\r\n     * @param _voter address of voter\r\n     */\r\n    function giveRightToVote(address _voter) public {\r\n        require(\r\n            msg.sender == chairperson,\r\n            \"Only chairperson can give right to vote.\"\r\n        );\r\n        require(\r\n            !voters[_voter].voted,\r\n            \"The voter already voted.\"\r\n        );\r\n        require(voters[_voter].weight == 0);\r\n        voters[_voter].weight = voters[_voter].weight.add(1);\r\n    }\r\n\r\n    /**\r\n     * @dev Delegate your vote to the voter 'to'.\r\n     * @param _to address to which vote is delegated\r\n     */\r\n    function delegate(address _to) public {\r\n        Voter storage sender = voters[msg.sender];\r\n        require(!sender.voted, \"You already voted.\");\r\n        require(_to != msg.sender, \"Self-delegation is disallowed.\");\r\n\r\n        while (voters[_to].delegate != address(0)) {\r\n            _to = voters[_to].delegate;\r\n\r\n            // We found a loop in the delegation, not allowed.\r\n            require(_to != msg.sender, \"Found loop in delegation.\");\r\n        }\r\n        sender.voted = true;\r\n        sender.delegate = _to;\r\n        Voter storage delegate_ = voters[_to];\r\n        if (delegate_.voted) {\r\n            // If the delegate already voted,\r\n            // directly add to the number of votes\r\n            proposals[delegate_.vote].voteCount = proposals[delegate_.vote].voteCount.add(sender.weight);\r\n        } else {\r\n            // If the delegate did not vote yet,\r\n            // add to her weight.\r\n            delegate_.weight = delegate_.weight.add(sender.weight);\r\n        }\r\n    }\r\n\r\n    /**\r\n     * @dev Give your vote (including votes delegated to you) to proposal 'proposals[proposal].name'.\r\n     * @param _proposal index of proposal in the proposals array\r\n     */\r\n    function vote(uint _proposal) public {\r\n        require(dateEnd >= now);\r\n        Voter storage sender = voters[msg.sender];\r\n        require(sender.weight != 0, \"Has no right to vote\");\r\n        require(!sender.voted, \"Already voted.\");\r\n        sender.voted = true;\r\n        sender.vote = _proposal;\r\n\r\n        // If 'proposal' is out of the range of the array,\r\n        // this will throw automatically and revert all\r\n        // changes.\r\n        proposals[_proposal].voteCount = proposals[_proposal].voteCount.add(sender.weight);\r\n    }\r\n\r\n    /** \r\n     * @dev Computes the winning proposal taking all previous votes into account.\r\n     * @return winningProposal_ index of winning proposal in the proposals array\r\n     */\r\n    function winningProposal() public view\r\n            returns (uint winningProposal_)\r\n    {\r\n        uint winningVoteCount = 0;\r\n        for (uint p = 0; p < proposals.length; p++) {\r\n            if (proposals[p].voteCount > winningVoteCount) {\r\n                winningVoteCount = proposals[p].voteCount;\r\n                winningProposal_ = p;\r\n            }\r\n        }\r\n    }\r\n\r\n    /** \r\n     * @dev Calls winningProposal() function to get the index of the winner contained in the proposals array and then\r\n     * @return winnerName_ the name of the winner\r\n     */\r\n    function winnerName() public view\r\n            returns (string memory winnerName_)\r\n    {\r\n        winnerName_ = proposals[winningProposal()].name;\r\n    }\r\n    \r\n    /**\r\n     * @dev Calls alreadyVote() function verify if a voter as already voter\r\n     * @return alreadyVote_\r\n     */\r\n    function alreadyVote() public view returns(bool alreadyVote_)\r\n    {\r\n        Voter storage sender = voters[msg.sender];\r\n        alreadyVote_ = sender.voted;\r\n    }\r\n}\r\n",
  "sourcePath": "D:\\Course\\5BLOCK\\project\\contracts\\Ballot.sol",
  "compiler": {
    "name": "solc",
    "version": "0.5.16+commit.9c3226ce.Emscripten.clang"
  },
  "schemaVersion": "3.0.23",
  "updatedAt": "2020-03-19T13:45:06.314Z",
  "networkType": "ethereum",
  "devdoc": {
    "details": "Implements voting process along with vote delegation",
    "methods": {
      "alreadyVote()": {
        "details": "Calls alreadyVote() function verify if a voter as already voter",
        "return": "alreadyVote_"
      },
      "constructor": {
        "details": "Create a new ballot to choose one of 'proposalNames'.",
        "params": {
          "_proposalNames": "names of proposals"
        }
      },
      "delegate(address)": {
        "details": "Delegate your vote to the voter 'to'.",
        "params": {
          "_to": "address to which vote is delegated"
        }
      },
      "giveRightToVote(address)": {
        "details": "Give 'voter' the right to vote on this ballot. May only be called by 'chairperson'.",
        "params": {
          "_voter": "address of voter"
        }
      },
      "vote(uint256)": {
        "details": "Give your vote (including votes delegated to you) to proposal 'proposals[proposal].name'.",
        "params": {
          "_proposal": "index of proposal in the proposals array"
        }
      },
      "winnerName()": {
        "details": "Calls winningProposal() function to get the index of the winner contained in the proposals array and then",
        "return": "winnerName_ the name of the winner"
      },
      "winningProposal()": {
        "details": "Computes the winning proposal taking all previous votes into account.",
        "return": "winningProposal_ index of winning proposal in the proposals array"
      }
    },
    "title": "Ballot"
  },
  "userdoc": {
    "methods": {}
  }
}